{
  "contractName": "ValueFeed",
  "abi": [
    {
      "inputs": [
        {
          "internalType": "contract ValueToken",
          "name": "_value",
          "type": "address"
        },
        {
          "internalType": "address",
          "name": "_dev",
          "type": "address"
        }
      ],
      "stateMutability": "nonpayable",
      "type": "constructor"
    },
    {
      "anonymous": false,
      "inputs": [
        {
          "indexed": true,
          "internalType": "address",
          "name": "user",
          "type": "address"
        },
        {
          "indexed": false,
          "internalType": "uint256",
          "name": "amount",
          "type": "uint256"
        }
      ],
      "name": "Deposit",
      "type": "event"
    },
    {
      "anonymous": false,
      "inputs": [
        {
          "indexed": true,
          "internalType": "address",
          "name": "previousOwner",
          "type": "address"
        },
        {
          "indexed": true,
          "internalType": "address",
          "name": "newOwner",
          "type": "address"
        }
      ],
      "name": "OwnershipTransferred",
      "type": "event"
    },
    {
      "anonymous": false,
      "inputs": [
        {
          "indexed": true,
          "internalType": "address[]",
          "name": "tokens",
          "type": "address[]"
        },
        {
          "indexed": false,
          "internalType": "uint256",
          "name": "amount",
          "type": "uint256"
        }
      ],
      "name": "Swap",
      "type": "event"
    },
    {
      "anonymous": false,
      "inputs": [
        {
          "indexed": true,
          "internalType": "address",
          "name": "user",
          "type": "address"
        },
        {
          "indexed": false,
          "internalType": "uint256",
          "name": "amount",
          "type": "uint256"
        }
      ],
      "name": "Withdraw",
      "type": "event"
    },
    {
      "inputs": [],
      "name": "MAX_COLLECTION_RATE",
      "outputs": [
        {
          "internalType": "uint256",
          "name": "",
          "type": "uint256"
        }
      ],
      "stateMutability": "view",
      "type": "function"
    },
    {
      "inputs": [],
      "name": "MAX_DISTRIBUTION_RATE",
      "outputs": [
        {
          "internalType": "uint256",
          "name": "",
          "type": "uint256"
        }
      ],
      "stateMutability": "view",
      "type": "function"
    },
    {
      "inputs": [],
      "name": "dev",
      "outputs": [
        {
          "internalType": "address",
          "name": "",
          "type": "address"
        }
      ],
      "stateMutability": "view",
      "type": "function"
    },
    {
      "inputs": [],
      "name": "ebState",
      "outputs": [
        {
          "internalType": "uint16",
          "name": "",
          "type": "uint16"
        }
      ],
      "stateMutability": "view",
      "type": "function"
    },
    {
      "inputs": [],
      "name": "owner",
      "outputs": [
        {
          "internalType": "address",
          "name": "",
          "type": "address"
        }
      ],
      "stateMutability": "view",
      "type": "function"
    },
    {
      "inputs": [],
      "name": "rateOfCollection",
      "outputs": [
        {
          "internalType": "uint256",
          "name": "",
          "type": "uint256"
        }
      ],
      "stateMutability": "view",
      "type": "function"
    },
    {
      "inputs": [],
      "name": "rateOfDistribution",
      "outputs": [
        {
          "internalType": "uint256",
          "name": "",
          "type": "uint256"
        }
      ],
      "stateMutability": "view",
      "type": "function"
    },
    {
      "inputs": [],
      "name": "renounceOwnership",
      "outputs": [],
      "stateMutability": "nonpayable",
      "type": "function"
    },
    {
      "inputs": [],
      "name": "startTime",
      "outputs": [
        {
          "internalType": "uint256",
          "name": "",
          "type": "uint256"
        }
      ],
      "stateMutability": "view",
      "type": "function"
    },
    {
      "inputs": [],
      "name": "totalValue",
      "outputs": [
        {
          "internalType": "uint256",
          "name": "",
          "type": "uint256"
        }
      ],
      "stateMutability": "view",
      "type": "function"
    },
    {
      "inputs": [
        {
          "internalType": "address",
          "name": "newOwner",
          "type": "address"
        }
      ],
      "name": "transferOwnership",
      "outputs": [],
      "stateMutability": "nonpayable",
      "type": "function"
    },
    {
      "inputs": [
        {
          "internalType": "address",
          "name": "",
          "type": "address"
        }
      ],
      "name": "userData",
      "outputs": [
        {
          "internalType": "uint256",
          "name": "inProgress",
          "type": "uint256"
        },
        {
          "internalType": "uint256",
          "name": "meritScore",
          "type": "uint256"
        },
        {
          "internalType": "uint256",
          "name": "lastReward",
          "type": "uint256"
        },
        {
          "internalType": "uint256",
          "name": "streak",
          "type": "uint256"
        },
        {
          "internalType": "uint256",
          "name": "rewardRate",
          "type": "uint256"
        }
      ],
      "stateMutability": "view",
      "type": "function"
    },
    {
      "inputs": [],
      "name": "value",
      "outputs": [
        {
          "internalType": "contract ValueToken",
          "name": "",
          "type": "address"
        }
      ],
      "stateMutability": "view",
      "type": "function"
    },
    {
      "inputs": [
        {
          "internalType": "address",
          "name": "",
          "type": "address"
        }
      ],
      "name": "valuePools",
      "outputs": [
        {
          "internalType": "uint256",
          "name": "totalValue",
          "type": "uint256"
        }
      ],
      "stateMutability": "view",
      "type": "function"
    },
    {
      "inputs": [
        {
          "internalType": "address",
          "name": "_tokenAddress",
          "type": "address"
        }
      ],
      "name": "addToken",
      "outputs": [],
      "stateMutability": "nonpayable",
      "type": "function"
    },
    {
      "inputs": [
        {
          "internalType": "address",
          "name": "_tokenAddress",
          "type": "address"
        }
      ],
      "name": "deposit",
      "outputs": [],
      "stateMutability": "payable",
      "type": "function"
    },
    {
      "inputs": [
        {
          "internalType": "address",
          "name": "_user",
          "type": "address"
        }
      ],
      "name": "viewRate",
      "outputs": [
        {
          "internalType": "uint256",
          "name": "",
          "type": "uint256"
        }
      ],
      "stateMutability": "view",
      "type": "function"
    },
    {
      "inputs": [
        {
          "internalType": "address",
          "name": "_user",
          "type": "address"
        }
      ],
      "name": "calculateReward",
      "outputs": [
        {
          "internalType": "uint256",
          "name": "",
          "type": "uint256"
        }
      ],
      "stateMutability": "view",
      "type": "function"
    },
    {
      "inputs": [
        {
          "internalType": "address",
          "name": "_tokenAddress",
          "type": "address"
        },
        {
          "internalType": "uint256",
          "name": "_amount",
          "type": "uint256"
        }
      ],
      "name": "withdrawFromPool",
      "outputs": [],
      "stateMutability": "nonpayable",
      "type": "function"
    },
    {
      "inputs": [
        {
          "internalType": "address",
          "name": "_user",
          "type": "address"
        }
      ],
      "name": "withdrawAllOwned",
      "outputs": [],
      "stateMutability": "nonpayable",
      "type": "function"
    }
  ],
  "bytecode": "0x608060405234801561001057600080fd5b506040516114723803806114728339818101604052604081101561003357600080fd5b810190808051906020019092919080519060200190929190505050600061005e6101c560201b60201c565b9050806000806101000a81548173ffffffffffffffffffffffffffffffffffffffff021916908373ffffffffffffffffffffffffffffffffffffffff1602179055508073ffffffffffffffffffffffffffffffffffffffff16600073ffffffffffffffffffffffffffffffffffffffff167f8be0079c531659141344cd1fd0a4f28419497f9722a3daafe3b4186f6b6457e060405160405180910390a35081600160006101000a81548173ffffffffffffffffffffffffffffffffffffffff021916908373ffffffffffffffffffffffffffffffffffffffff16021790555080600260006101000a81548173ffffffffffffffffffffffffffffffffffffffff021916908373ffffffffffffffffffffffffffffffffffffffff160217905550426006819055506002690538b007340b75ddb9008161019957fe5b046004819055506064600560006101000a81548161ffff021916908361ffff16021790555050506101cd565b600033905090565b611296806101dc6000396000f3fe60806040526004361061011f5760003560e01c806391cca3db116100a0578063d48bfca711610064578063d48bfca7146104fb578063d4c3eea01461054c578063d82e396214610577578063f2fde38b146105dc578063f340fa011461062d5761011f565b806391cca3db14610388578063a7bfb739146103c9578063c1bf9e58146103f4578063c89109131461044f578063cf9d6086146104d05761011f565b8063715018a6116100e7578063715018a614610275578063716f4d571461028c57806378e97925146102f15780637d15e7be1461031c5780638da5cb5b146103475761011f565b8063110a59f3146101245780631bff6bf1146101895780633fa4f245146101da578063562db26b1461021b5780636c2bd2451461024a575b600080fd5b34801561013057600080fd5b506101736004803603602081101561014757600080fd5b81019080803573ffffffffffffffffffffffffffffffffffffffff169060200190929190505050610671565b6040518082815260200191505060405180910390f35b34801561019557600080fd5b506101d8600480360360208110156101ac57600080fd5b81019080803573ffffffffffffffffffffffffffffffffffffffff16906020019092919050505061068f565b005b3480156101e657600080fd5b506101ef610866565b604051808273ffffffffffffffffffffffffffffffffffffffff16815260200191505060405180910390f35b34801561022757600080fd5b5061023061088c565b604051808261ffff16815260200191505060405180910390f35b34801561025657600080fd5b5061025f6108a0565b6040518082815260200191505060405180910390f35b34801561028157600080fd5b5061028a6108a6565b005b34801561029857600080fd5b506102db600480360360208110156102af57600080fd5b81019080803573ffffffffffffffffffffffffffffffffffffffff169060200190929190505050610a2c565b6040518082815260200191505060405180910390f35b3480156102fd57600080fd5b50610306610a7d565b6040518082815260200191505060405180910390f35b34801561032857600080fd5b50610331610a83565b6040518082815260200191505060405180910390f35b34801561035357600080fd5b5061035c610a91565b604051808273ffffffffffffffffffffffffffffffffffffffff16815260200191505060405180910390f35b34801561039457600080fd5b5061039d610aba565b604051808273ffffffffffffffffffffffffffffffffffffffff16815260200191505060405180910390f35b3480156103d557600080fd5b506103de610ae0565b6040518082815260200191505060405180910390f35b34801561040057600080fd5b5061044d6004803603604081101561041757600080fd5b81019080803573ffffffffffffffffffffffffffffffffffffffff16906020019092919080359060200190929190505050610aee565b005b34801561045b57600080fd5b5061049e6004803603602081101561047257600080fd5b81019080803573ffffffffffffffffffffffffffffffffffffffff169060200190929190505050610d22565b604051808681526020018581526020018481526020018381526020018281526020019550505050505060405180910390f35b3480156104dc57600080fd5b506104e5610d58565b6040518082815260200191505060405180910390f35b34801561050757600080fd5b5061054a6004803603602081101561051e57600080fd5b81019080803573ffffffffffffffffffffffffffffffffffffffff169060200190929190505050610d5e565b005b34801561055857600080fd5b50610561610e8c565b6040518082815260200191505060405180910390f35b34801561058357600080fd5b506105c66004803603602081101561059a57600080fd5b81019080803573ffffffffffffffffffffffffffffffffffffffff169060200190929190505050610e92565b6040518082815260200191505060405180910390f35b3480156105e857600080fd5b5061062b600480360360208110156105ff57600080fd5b81019080803573ffffffffffffffffffffffffffffffffffffffff169060200190929190505050610ee9565b005b61066f6004803603602081101561064357600080fd5b81019080803573ffffffffffffffffffffffffffffffffffffffff1690602001909291905050506110f4565b005b60096020528060005260406000206000915090508060000154905081565b60005b600a8054905081101561086257600060096000600a84815481106106b257fe5b9060005260206000200160009054906101000a900473ffffffffffffffffffffffffffffffffffffffff1673ffffffffffffffffffffffffffffffffffffffff1673ffffffffffffffffffffffffffffffffffffffff16815260200190815260200160002060010160008473ffffffffffffffffffffffffffffffffffffffff1673ffffffffffffffffffffffffffffffffffffffff168152602001908152602001600020541461085557610854600a828154811061076d57fe5b9060005260206000200160009054906101000a900473ffffffffffffffffffffffffffffffffffffffff1660096000600a85815481106107a957fe5b9060005260206000200160009054906101000a900473ffffffffffffffffffffffffffffffffffffffff1673ffffffffffffffffffffffffffffffffffffffff1673ffffffffffffffffffffffffffffffffffffffff16815260200190815260200160002060010160008573ffffffffffffffffffffffffffffffffffffffff1673ffffffffffffffffffffffffffffffffffffffff16815260200190815260200160002054610aee565b5b8080600101915050610692565b5050565b600160009054906101000a900473ffffffffffffffffffffffffffffffffffffffff1681565b600560009054906101000a900461ffff1681565b60045481565b6108ae611232565b73ffffffffffffffffffffffffffffffffffffffff1660008054906101000a900473ffffffffffffffffffffffffffffffffffffffff1673ffffffffffffffffffffffffffffffffffffffff161461096e576040517f08c379a00000000000000000000000000000000000000000000000000000000081526004018080602001828103825260208152602001807f4f776e61626c653a2063616c6c6572206973206e6f7420746865206f776e657281525060200191505060405180910390fd5b600073ffffffffffffffffffffffffffffffffffffffff1660008054906101000a900473ffffffffffffffffffffffffffffffffffffffff1673ffffffffffffffffffffffffffffffffffffffff167f8be0079c531659141344cd1fd0a4f28419497f9722a3daafe3b4186f6b6457e060405160405180910390a360008060006101000a81548173ffffffffffffffffffffffffffffffffffffffff021916908373ffffffffffffffffffffffffffffffffffffffff160217905550565b600080600860008473ffffffffffffffffffffffffffffffffffffffff1673ffffffffffffffffffffffffffffffffffffffff16815260200190815260200160002090508060040154915050919050565b60065481565b69010b5667d7357df9250081565b60008060009054906101000a900473ffffffffffffffffffffffffffffffffffffffff16905090565b600260009054906101000a900473ffffffffffffffffffffffffffffffffffffffff1681565b690538b007340b75ddb90081565b80600960008473ffffffffffffffffffffffffffffffffffffffff1673ffffffffffffffffffffffffffffffffffffffff16815260200190815260200160002060010160003373ffffffffffffffffffffffffffffffffffffffff1673ffffffffffffffffffffffffffffffffffffffff168152602001908152602001600020541015610be3576040517f08c379a00000000000000000000000000000000000000000000000000000000081526004018080602001828103825260128152602001807f496e73756666696369656e742066756e6473000000000000000000000000000081525060200191505060405180910390fd5b3373ffffffffffffffffffffffffffffffffffffffff167f884edad9ce6fa2440d8a54cc123490eb96d2768479d49ff9c7366125a9424364826040518082815260200191505060405180910390a280600960008473ffffffffffffffffffffffffffffffffffffffff1673ffffffffffffffffffffffffffffffffffffffff1681526020019081526020016000206000016000828254039250508190555080600960008473ffffffffffffffffffffffffffffffffffffffff1673ffffffffffffffffffffffffffffffffffffffff16815260200190815260200160002060010160003373ffffffffffffffffffffffffffffffffffffffff1673ffffffffffffffffffffffffffffffffffffffff16815260200190815260200160002060008282540392505081905550806007600082825403925050819055505050565b60086020528060005260406000206000915090508060000154908060010154908060020154908060030154908060040154905085565b60035481565b610d66611232565b73ffffffffffffffffffffffffffffffffffffffff1660008054906101000a900473ffffffffffffffffffffffffffffffffffffffff1673ffffffffffffffffffffffffffffffffffffffff1614610e26576040517f08c379a00000000000000000000000000000000000000000000000000000000081526004018080602001828103825260208152602001807f4f776e61626c653a2063616c6c6572206973206e6f7420746865206f776e657281525060200191505060405180910390fd5b600a819080600181540180825580915050600190039060005260206000200160009091909190916101000a81548173ffffffffffffffffffffffffffffffffffffffff021916908373ffffffffffffffffffffffffffffffffffffffff16021790555050565b60075481565b600080600860008473ffffffffffffffffffffffffffffffffffffffff1673ffffffffffffffffffffffffffffffffffffffff16815260200190815260200160002090508060010154816004015402915050919050565b610ef1611232565b73ffffffffffffffffffffffffffffffffffffffff1660008054906101000a900473ffffffffffffffffffffffffffffffffffffffff1673ffffffffffffffffffffffffffffffffffffffff1614610fb1576040517f08c379a00000000000000000000000000000000000000000000000000000000081526004018080602001828103825260208152602001807f4f776e61626c653a2063616c6c6572206973206e6f7420746865206f776e657281525060200191505060405180910390fd5b600073ffffffffffffffffffffffffffffffffffffffff168173ffffffffffffffffffffffffffffffffffffffff161415611037576040517f08c379a000000000000000000000000000000000000000000000000000000000815260040180806020018281038252602681526020018061123b6026913960400191505060405180910390fd5b8073ffffffffffffffffffffffffffffffffffffffff1660008054906101000a900473ffffffffffffffffffffffffffffffffffffffff1673ffffffffffffffffffffffffffffffffffffffff167f8be0079c531659141344cd1fd0a4f28419497f9722a3daafe3b4186f6b6457e060405160405180910390a3806000806101000a81548173ffffffffffffffffffffffffffffffffffffffff021916908373ffffffffffffffffffffffffffffffffffffffff16021790555050565b3373ffffffffffffffffffffffffffffffffffffffff167fe1fffcc4923d04b559f4d29a8bfc6cda04eb5b0d3c460751c2402c5c5cc9109c346040518082815260200191505060405180910390a234600960008373ffffffffffffffffffffffffffffffffffffffff1673ffffffffffffffffffffffffffffffffffffffff1681526020019081526020016000206000016000828254019250508190555034600960008373ffffffffffffffffffffffffffffffffffffffff1673ffffffffffffffffffffffffffffffffffffffff16815260200190815260200160002060010160003373ffffffffffffffffffffffffffffffffffffffff1673ffffffffffffffffffffffffffffffffffffffff168152602001908152602001600020600082825401925050819055503460076000828254019250508190555050565b60003390509056fe4f776e61626c653a206e6577206f776e657220697320746865207a65726f2061646472657373a2646970667358221220856114babfc37ecbf1421b06b1dab371507192d40a21ab6b2ac971216e87b58064736f6c63430007000033",
  "immutableReferences": {},
  "source": "pragma solidity 0.7.0;\n\nimport \"@openzeppelin/contracts/math/SafeMath.sol\";\nimport \"@openzeppelin/contracts/access/Ownable.sol\";\nimport \"./ValueToken.sol\";\n\n/**\n * @title A contract for the Value Feed\n * @author Nobody (that's me!)\n * @notice The value feed is the emergent body made up of all value pools,\n * and all the assets stored in them as well as their holders themselves.\n * @dev Ownable so that later on it can be sent to a governance smart contract.\n * (This will only be done once VALUE has enough holders, so much so that an ecosystem has been created (>1000 users)\n */\ncontract ValueFeed is Ownable {\n\n    using SafeMath for uint256;\n\n    // Info of each user.\n    struct UserData {\n        uint256 inProgress; // The amount of tokens owed by the value feed to the user (rewarded every four weeks).\n        uint256 meritScore; // The score which determines the value that the user brings to the system.\n        uint256 lastReward; // The amount of points last awarded to the user.\n        uint256 streak;     // The number of consecutive successful proposals made by the user (if applicable).\n        uint256 rewardRate; // The cumulative reward rate used to calculate the amount of VALUE earned every four weeks.\n    }\n\n    // Info of each pool.\n    struct ValuePool {\n        uint256 totalValue;                     // The total monetary value (not the token) in this pool.\n        mapping (address => uint256) userValue; // Each address in this pool\n    }\n\n    // The VALUE token\n    ValueToken public value;\n    // The dev address.\n    address public dev;\n    // The maximum rate at which VALUE is minted every day.\n    // At the maximum rate, supply lasts 10 years. Note: we operate on a base of 1 = 1e18 (account for decimals)\n    uint256 public constant MAX_DISTRIBUTION_RATE = 2.46575342465753e22;\n    uint256 public constant MAX_COLLECTION_RATE = 4.93150684931506e21;\n    // The rate at which part of the rewards are taken from users in case consecutive ill behavior.\n    uint256 public rateOfCollection;\n    // VALUE tokens created per block, initially starts at the mid point of its max and min.\n    uint256 public rateOfDistribution;\n    // A numerical representation of the entire behavioral state of the Value Feed\n    uint16 public ebState;\n    // The time in seconds at which the value feed is first put up. Used in order to know when to distribute rewards.\n    uint256 public startTime;\n    // The total amount of monetary value in the entire value feed.\n    uint256 public totalValue;\n\n    // Info of each user that provides tokens to the feed.\n    mapping (address => UserData) public userData;\n    // Each value pool is mapped to its respective token address\n    mapping (address => ValuePool) public valuePools;\n    // Contains each token address for which a value pool was created\n    address[] tokens;\n\n\n    event Deposit(address indexed user, uint256 amount);\n    event Withdraw(address indexed user, uint256 amount);\n    event Swap(address[] indexed tokens, uint256 amount);\n\n    /**\n     * Constructor: initiates the value feed smart contract.\n     * @param _value The value token\n     * @param _dev The dev address\n     */\n    constructor(ValueToken _value, address _dev) {\n        value = _value;\n        dev = _dev;\n        startTime = block.timestamp;\n        rateOfDistribution = MAX_DISTRIBUTION_RATE / 2;\n        ebState = 100;\n    }\n\n    /**\n    * @notice Adds a token address for which a value pool was created\n    * @param _tokenAddress The address of the value pool's token's contract\n    * @dev Owner only to prevent any DoS attacks\n    */\n    function addToken(address _tokenAddress) public onlyOwner {\n        tokens.push(_tokenAddress);\n    }\n\n    /**\n     * @notice Deposits a given amount to a value pool\n     * @param _tokenAddress The address of the value pool's token's contract\n     */\n    function deposit(address _tokenAddress) public payable {\n        emit Deposit(msg.sender, msg.value);\n\n        valuePools[_tokenAddress].totalValue += msg.value;\n        valuePools[_tokenAddress].userValue[msg.sender] += msg.value;\n        totalValue += msg.value;\n    }\n\n    /**\n     * @notice Returns the reward rate, to view it on the frontend\n     * @param _user ETH address of the specified user\n     */\n    function viewRate(address _user) external view returns (uint256) {\n        UserData storage user = userData[_user];\n        return user.rewardRate;\n    }\n\n    /**\n     * @notice Calculates the (total) reward for a given user address.\n     * @param _user ETH address of the specified user\n     */\n    function calculateReward(address _user) external view returns (uint256) {\n        UserData storage user = userData[_user];\n        return (user.rewardRate * user.meritScore);\n    }\n\n    /**\n     * @notice Withdraws a given amount from a value pool\n     * @param _tokenAddress The address of the token contract who's value pool\n     * @param _amount The amount of tokens being withdrawn\n     */\n    function withdrawFromPool(address _tokenAddress, uint256 _amount) public {\n        require(valuePools[_tokenAddress].userValue[msg.sender] >= _amount, \"Insufficient funds\");\n        emit Withdraw(msg.sender, _amount);\n\n        valuePools[_tokenAddress].totalValue -= _amount;\n        valuePools[_tokenAddress].userValue[msg.sender] -= _amount;\n        totalValue -= _amount;\n    }\n\n    /**\n     * @notice Withdraws all tokens owned by a user from their respective value pools\n     * @param _user The ETH address of the specified user\n     */\n    function withdrawAllOwned(address _user) public {\n        for (uint256 i = 0; i < tokens.length; i++) {\n            if (valuePools[tokens[i]].userValue[_user] != 0) {\n                withdrawFromPool(tokens[i], valuePools[tokens[i]].userValue[_user]);\n            }\n        }\n    }\n\n    function updateRates(bool encourage) internal {\n        uint256 _ebState = ebState;\n        if (encourage && _ebState < 200) {\n            ebState++;\n        } else if (!encourage && _ebState > 0) {\n            ebState--;\n        }\n        if (ebState % 3 == 0) {\n            rateOfDistribution = _calculateNewRate(!encourage, ebState, rateOfDistribution, MAX_DISTRIBUTION_RATE);\n            rateOfCollection = _calculateNewRate(encourage, ebState, rateOfCollection, MAX_COLLECTION_RATE);\n        }\n    }\n\n\n    function _calculateNewRate(bool encourage, uint16 ebState, uint256 previousRate, uint256 maxRate) internal pure\n    returns (uint256) {\n        uint256 newRate;\n\n        if (!encourage && previousRate < maxRate) {\n            newRate = (previousRate * (1e4 + abs(100 - ebState))) / 1e4;\n            if (newRate >= maxRate) {\n                newRate = maxRate;\n            }\n        } else if (encourage && previousRate > 0) {\n            newRate = (previousRate / (1e4 + abs(50 - ebState))) / 1e4;\n            if (newRate <= maxRate) {\n                newRate = maxRate;\n            }\n        }\n        return newRate;\n    }\n\n    function abs(int256 number) private pure returns (uint256) {\n        return number < 0 ? uint256(number * -1) : uint256(number);\n    }\n}",
  "sourcePath": "/Users/lumonne/meritocracy/contracts/ValueFeed.sol",
  "compiler": {
    "name": "solc",
    "version": "0.7.0+commit.9e61f92b.Emscripten.clang"
  },
  "schemaVersion": "3.2.5",
  "updatedAt": "2020-10-14T23:13:30.842Z",
  "devdoc": {
    "author": "Nobody (that's me!)",
    "details": "Ownable so that later on it can be sent to a governance smart contract. (This will only be done once VALUE has enough holders, so much so that an ecosystem has been created (>1000 users)",
    "kind": "dev",
    "methods": {
      "addToken(address)": {
        "details": "Owner only to prevent any DoS attacks",
        "params": {
          "_tokenAddress": "The address of the value pool's token's contract"
        }
      },
      "calculateReward(address)": {
        "params": {
          "_user": "ETH address of the specified user"
        }
      },
      "constructor": {
        "params": {
          "_dev": "The dev address",
          "_value": "The value token"
        }
      },
      "deposit(address)": {
        "params": {
          "_tokenAddress": "The address of the value pool's token's contract"
        }
      },
      "owner()": {
        "details": "Returns the address of the current owner."
      },
      "renounceOwnership()": {
        "details": "Leaves the contract without owner. It will not be possible to call `onlyOwner` functions anymore. Can only be called by the current owner. NOTE: Renouncing ownership will leave the contract without an owner, thereby removing any functionality that is only available to the owner."
      },
      "transferOwnership(address)": {
        "details": "Transfers ownership of the contract to a new account (`newOwner`). Can only be called by the current owner."
      },
      "viewRate(address)": {
        "params": {
          "_user": "ETH address of the specified user"
        }
      },
      "withdrawAllOwned(address)": {
        "params": {
          "_user": "The ETH address of the specified user"
        }
      },
      "withdrawFromPool(address,uint256)": {
        "params": {
          "_amount": "The amount of tokens being withdrawn",
          "_tokenAddress": "The address of the token contract who's value pool"
        }
      }
    },
    "title": "A contract for the Value Feed",
    "version": 1
  },
  "userdoc": {
    "kind": "user",
    "methods": {
      "addToken(address)": {
        "notice": "Adds a token address for which a value pool was created"
      },
      "calculateReward(address)": {
        "notice": "Calculates the (total) reward for a given user address."
      },
      "constructor": {
        "notice": "Constructor: initiates the value feed smart contract."
      },
      "deposit(address)": {
        "notice": "Deposits a given amount to a value pool"
      },
      "viewRate(address)": {
        "notice": "Returns the reward rate, to view it on the frontend"
      },
      "withdrawAllOwned(address)": {
        "notice": "Withdraws all tokens owned by a user from their respective value pools"
      },
      "withdrawFromPool(address,uint256)": {
        "notice": "Withdraws a given amount from a value pool"
      }
    },
    "notice": "The value feed is the emergent body made up of all value pools, and all the assets stored in them as well as their holders themselves.",
    "version": 1
  }
}