{
  "contractName": "ValueFeed",
  "abi": [
    {
      "inputs": [
        {
          "internalType": "contract ValueToken",
          "name": "_value",
          "type": "address"
        }
      ],
      "stateMutability": "nonpayable",
      "type": "constructor"
    },
    {
      "anonymous": false,
      "inputs": [
        {
          "indexed": true,
          "internalType": "address",
          "name": "user",
          "type": "address"
        },
        {
          "indexed": false,
          "internalType": "uint256",
          "name": "amount",
          "type": "uint256"
        }
      ],
      "name": "Deposit",
      "type": "event"
    },
    {
      "anonymous": false,
      "inputs": [
        {
          "indexed": true,
          "internalType": "address",
          "name": "previousOwner",
          "type": "address"
        },
        {
          "indexed": true,
          "internalType": "address",
          "name": "newOwner",
          "type": "address"
        }
      ],
      "name": "OwnershipTransferred",
      "type": "event"
    },
    {
      "anonymous": false,
      "inputs": [
        {
          "indexed": true,
          "internalType": "address[]",
          "name": "tokens",
          "type": "address[]"
        },
        {
          "indexed": false,
          "internalType": "uint256",
          "name": "amount",
          "type": "uint256"
        }
      ],
      "name": "Swap",
      "type": "event"
    },
    {
      "anonymous": false,
      "inputs": [
        {
          "indexed": true,
          "internalType": "address",
          "name": "user",
          "type": "address"
        },
        {
          "indexed": false,
          "internalType": "uint256",
          "name": "amount",
          "type": "uint256"
        }
      ],
      "name": "Withdraw",
      "type": "event"
    },
    {
      "inputs": [],
      "name": "MAX_COLLECTION_RATE",
      "outputs": [
        {
          "internalType": "uint256",
          "name": "",
          "type": "uint256"
        }
      ],
      "stateMutability": "view",
      "type": "function",
      "constant": true
    },
    {
      "inputs": [],
      "name": "MAX_DISTRIBUTION_RATE",
      "outputs": [
        {
          "internalType": "uint256",
          "name": "",
          "type": "uint256"
        }
      ],
      "stateMutability": "view",
      "type": "function",
      "constant": true
    },
    {
      "inputs": [],
      "name": "dev",
      "outputs": [
        {
          "internalType": "address",
          "name": "",
          "type": "address"
        }
      ],
      "stateMutability": "view",
      "type": "function",
      "constant": true
    },
    {
      "inputs": [],
      "name": "ebState",
      "outputs": [
        {
          "internalType": "uint16",
          "name": "",
          "type": "uint16"
        }
      ],
      "stateMutability": "view",
      "type": "function",
      "constant": true
    },
    {
      "inputs": [],
      "name": "owner",
      "outputs": [
        {
          "internalType": "address",
          "name": "",
          "type": "address"
        }
      ],
      "stateMutability": "view",
      "type": "function",
      "constant": true
    },
    {
      "inputs": [],
      "name": "rateOfCollection",
      "outputs": [
        {
          "internalType": "uint256",
          "name": "",
          "type": "uint256"
        }
      ],
      "stateMutability": "view",
      "type": "function",
      "constant": true
    },
    {
      "inputs": [],
      "name": "rateOfDistribution",
      "outputs": [
        {
          "internalType": "uint256",
          "name": "",
          "type": "uint256"
        }
      ],
      "stateMutability": "view",
      "type": "function",
      "constant": true
    },
    {
      "inputs": [],
      "name": "renounceOwnership",
      "outputs": [],
      "stateMutability": "nonpayable",
      "type": "function"
    },
    {
      "inputs": [],
      "name": "startTime",
      "outputs": [
        {
          "internalType": "uint256",
          "name": "",
          "type": "uint256"
        }
      ],
      "stateMutability": "view",
      "type": "function",
      "constant": true
    },
    {
      "inputs": [],
      "name": "totalValue",
      "outputs": [
        {
          "internalType": "uint256",
          "name": "",
          "type": "uint256"
        }
      ],
      "stateMutability": "view",
      "type": "function",
      "constant": true
    },
    {
      "inputs": [
        {
          "internalType": "address",
          "name": "newOwner",
          "type": "address"
        }
      ],
      "name": "transferOwnership",
      "outputs": [],
      "stateMutability": "nonpayable",
      "type": "function"
    },
    {
      "inputs": [
        {
          "internalType": "address",
          "name": "",
          "type": "address"
        }
      ],
      "name": "userData",
      "outputs": [
        {
          "internalType": "uint256",
          "name": "inProgress",
          "type": "uint256"
        },
        {
          "internalType": "uint256",
          "name": "meritScore",
          "type": "uint256"
        },
        {
          "internalType": "uint256",
          "name": "lastReward",
          "type": "uint256"
        },
        {
          "internalType": "uint256",
          "name": "streak",
          "type": "uint256"
        },
        {
          "internalType": "uint256",
          "name": "rewardRate",
          "type": "uint256"
        }
      ],
      "stateMutability": "view",
      "type": "function",
      "constant": true
    },
    {
      "inputs": [],
      "name": "value",
      "outputs": [
        {
          "internalType": "contract ValueToken",
          "name": "",
          "type": "address"
        }
      ],
      "stateMutability": "view",
      "type": "function",
      "constant": true
    },
    {
      "inputs": [
        {
          "internalType": "address",
          "name": "",
          "type": "address"
        }
      ],
      "name": "valuePools",
      "outputs": [
        {
          "internalType": "uint256",
          "name": "totalValue",
          "type": "uint256"
        }
      ],
      "stateMutability": "view",
      "type": "function",
      "constant": true
    },
    {
      "inputs": [
        {
          "internalType": "address",
          "name": "_tokenAddress",
          "type": "address"
        }
      ],
      "name": "addToken",
      "outputs": [],
      "stateMutability": "nonpayable",
      "type": "function"
    },
    {
      "inputs": [
        {
          "internalType": "address",
          "name": "_tokenAddress",
          "type": "address"
        },
        {
          "internalType": "uint256",
          "name": "_amount",
          "type": "uint256"
        }
      ],
      "name": "deposit",
      "outputs": [],
      "stateMutability": "payable",
      "type": "function",
      "payable": true
    },
    {
      "inputs": [
        {
          "internalType": "address",
          "name": "_user",
          "type": "address"
        }
      ],
      "name": "viewRate",
      "outputs": [
        {
          "internalType": "uint256",
          "name": "",
          "type": "uint256"
        }
      ],
      "stateMutability": "view",
      "type": "function",
      "constant": true
    },
    {
      "inputs": [
        {
          "internalType": "address",
          "name": "_user",
          "type": "address"
        }
      ],
      "name": "calculateReward",
      "outputs": [
        {
          "internalType": "uint256",
          "name": "",
          "type": "uint256"
        }
      ],
      "stateMutability": "view",
      "type": "function",
      "constant": true
    },
    {
      "inputs": [
        {
          "internalType": "address",
          "name": "_tokenAddress",
          "type": "address"
        },
        {
          "internalType": "uint256",
          "name": "_amount",
          "type": "uint256"
        }
      ],
      "name": "withdrawFromPool",
      "outputs": [],
      "stateMutability": "nonpayable",
      "type": "function"
    },
    {
      "inputs": [
        {
          "internalType": "address",
          "name": "_user",
          "type": "address"
        }
      ],
      "name": "withdrawAllOwned",
      "outputs": [],
      "stateMutability": "nonpayable",
      "type": "function"
    }
  ],
  "bytecode": "0x608060405234801561001057600080fd5b5060405161143a38038061143a8339818101604052602081101561003357600080fd5b810190808051906020019092919050505060006100546101ba60201b60201c565b9050806000806101000a81548173ffffffffffffffffffffffffffffffffffffffff021916908373ffffffffffffffffffffffffffffffffffffffff1602179055508073ffffffffffffffffffffffffffffffffffffffff16600073ffffffffffffffffffffffffffffffffffffffff167f8be0079c531659141344cd1fd0a4f28419497f9722a3daafe3b4186f6b6457e060405160405180910390a35080600160006101000a81548173ffffffffffffffffffffffffffffffffffffffff021916908373ffffffffffffffffffffffffffffffffffffffff16021790555033600260006101000a81548173ffffffffffffffffffffffffffffffffffffffff021916908373ffffffffffffffffffffffffffffffffffffffff160217905550426006819055506002690538b007340b75ddb9008161018f57fe5b046004819055506096600560006101000a81548161ffff021916908361ffff160217905550506101c2565b600033905090565b611269806101d16000396000f3fe60806040526004361061011f5760003560e01c80638da5cb5b116100a0578063cf9d608611610064578063cf9d60861461051e578063d48bfca714610549578063d4c3eea01461059a578063d82e3962146105c5578063f2fde38b1461062a5761011f565b80638da5cb5b1461039557806391cca3db146103d6578063a7bfb73914610417578063c1bf9e5814610442578063c89109131461049d5761011f565b80636c2bd245116100e75780636c2bd24514610298578063715018a6146102c3578063716f4d57146102da57806378e979251461033f5780637d15e7be1461036a5761011f565b8063110a59f3146101245780631bff6bf1146101895780633fa4f245146101da57806347e7ef241461021b578063562db26b14610269575b600080fd5b34801561013057600080fd5b506101736004803603602081101561014757600080fd5b81019080803573ffffffffffffffffffffffffffffffffffffffff16906020019092919050505061067b565b6040518082815260200191505060405180910390f35b34801561019557600080fd5b506101d8600480360360208110156101ac57600080fd5b81019080803573ffffffffffffffffffffffffffffffffffffffff169060200190929190505050610699565b005b3480156101e657600080fd5b506101ef610870565b604051808273ffffffffffffffffffffffffffffffffffffffff16815260200191505060405180910390f35b6102676004803603604081101561023157600080fd5b81019080803573ffffffffffffffffffffffffffffffffffffffff16906020019092919080359060200190929190505050610896565b005b34801561027557600080fd5b5061027e61099d565b604051808261ffff16815260200191505060405180910390f35b3480156102a457600080fd5b506102ad6109b1565b6040518082815260200191505060405180910390f35b3480156102cf57600080fd5b506102d86109b7565b005b3480156102e657600080fd5b50610329600480360360208110156102fd57600080fd5b81019080803573ffffffffffffffffffffffffffffffffffffffff169060200190929190505050610b3d565b6040518082815260200191505060405180910390f35b34801561034b57600080fd5b50610354610b8e565b6040518082815260200191505060405180910390f35b34801561037657600080fd5b5061037f610b94565b6040518082815260200191505060405180910390f35b3480156103a157600080fd5b506103aa610ba2565b604051808273ffffffffffffffffffffffffffffffffffffffff16815260200191505060405180910390f35b3480156103e257600080fd5b506103eb610bcb565b604051808273ffffffffffffffffffffffffffffffffffffffff16815260200191505060405180910390f35b34801561042357600080fd5b5061042c610bf1565b6040518082815260200191505060405180910390f35b34801561044e57600080fd5b5061049b6004803603604081101561046557600080fd5b81019080803573ffffffffffffffffffffffffffffffffffffffff16906020019092919080359060200190929190505050610bff565b005b3480156104a957600080fd5b506104ec600480360360208110156104c057600080fd5b81019080803573ffffffffffffffffffffffffffffffffffffffff169060200190929190505050610e33565b604051808681526020018581526020018481526020018381526020018281526020019550505050505060405180910390f35b34801561052a57600080fd5b50610533610e69565b6040518082815260200191505060405180910390f35b34801561055557600080fd5b506105986004803603602081101561056c57600080fd5b81019080803573ffffffffffffffffffffffffffffffffffffffff169060200190929190505050610e6f565b005b3480156105a657600080fd5b506105af610f9d565b6040518082815260200191505060405180910390f35b3480156105d157600080fd5b50610614600480360360208110156105e857600080fd5b81019080803573ffffffffffffffffffffffffffffffffffffffff169060200190929190505050610fa3565b6040518082815260200191505060405180910390f35b34801561063657600080fd5b506106796004803603602081101561064d57600080fd5b81019080803573ffffffffffffffffffffffffffffffffffffffff169060200190929190505050610ffa565b005b60096020528060005260406000206000915090508060000154905081565b60005b600a8054905081101561086c57600060096000600a84815481106106bc57fe5b9060005260206000200160009054906101000a900473ffffffffffffffffffffffffffffffffffffffff1673ffffffffffffffffffffffffffffffffffffffff1673ffffffffffffffffffffffffffffffffffffffff16815260200190815260200160002060010160008473ffffffffffffffffffffffffffffffffffffffff1673ffffffffffffffffffffffffffffffffffffffff168152602001908152602001600020541461085f5761085e600a828154811061077757fe5b9060005260206000200160009054906101000a900473ffffffffffffffffffffffffffffffffffffffff1660096000600a85815481106107b357fe5b9060005260206000200160009054906101000a900473ffffffffffffffffffffffffffffffffffffffff1673ffffffffffffffffffffffffffffffffffffffff1673ffffffffffffffffffffffffffffffffffffffff16815260200190815260200160002060010160008573ffffffffffffffffffffffffffffffffffffffff1673ffffffffffffffffffffffffffffffffffffffff16815260200190815260200160002054610bff565b5b808060010191505061069c565b5050565b600160009054906101000a900473ffffffffffffffffffffffffffffffffffffffff1681565b6000600960008473ffffffffffffffffffffffffffffffffffffffff1673ffffffffffffffffffffffffffffffffffffffff16815260200190815260200160002090503373ffffffffffffffffffffffffffffffffffffffff167fe1fffcc4923d04b559f4d29a8bfc6cda04eb5b0d3c460751c2402c5c5cc9109c836040518082815260200191505060405180910390a2818160000160008282540192505081905550818160010160003373ffffffffffffffffffffffffffffffffffffffff1673ffffffffffffffffffffffffffffffffffffffff1681526020019081526020016000206000828254019250508190555081600760008282540192505081905550505050565b600560009054906101000a900461ffff1681565b60045481565b6109bf611205565b73ffffffffffffffffffffffffffffffffffffffff1660008054906101000a900473ffffffffffffffffffffffffffffffffffffffff1673ffffffffffffffffffffffffffffffffffffffff1614610a7f576040517f08c379a00000000000000000000000000000000000000000000000000000000081526004018080602001828103825260208152602001807f4f776e61626c653a2063616c6c6572206973206e6f7420746865206f776e657281525060200191505060405180910390fd5b600073ffffffffffffffffffffffffffffffffffffffff1660008054906101000a900473ffffffffffffffffffffffffffffffffffffffff1673ffffffffffffffffffffffffffffffffffffffff167f8be0079c531659141344cd1fd0a4f28419497f9722a3daafe3b4186f6b6457e060405160405180910390a360008060006101000a81548173ffffffffffffffffffffffffffffffffffffffff021916908373ffffffffffffffffffffffffffffffffffffffff160217905550565b600080600860008473ffffffffffffffffffffffffffffffffffffffff1673ffffffffffffffffffffffffffffffffffffffff16815260200190815260200160002090508060040154915050919050565b60065481565b69010b5667d7357df9250081565b60008060009054906101000a900473ffffffffffffffffffffffffffffffffffffffff16905090565b600260009054906101000a900473ffffffffffffffffffffffffffffffffffffffff1681565b690538b007340b75ddb90081565b80600960008473ffffffffffffffffffffffffffffffffffffffff1673ffffffffffffffffffffffffffffffffffffffff16815260200190815260200160002060010160003373ffffffffffffffffffffffffffffffffffffffff1673ffffffffffffffffffffffffffffffffffffffff168152602001908152602001600020541015610cf4576040517f08c379a00000000000000000000000000000000000000000000000000000000081526004018080602001828103825260128152602001807f496e73756666696369656e742066756e6473000000000000000000000000000081525060200191505060405180910390fd5b3373ffffffffffffffffffffffffffffffffffffffff167f884edad9ce6fa2440d8a54cc123490eb96d2768479d49ff9c7366125a9424364826040518082815260200191505060405180910390a280600960008473ffffffffffffffffffffffffffffffffffffffff1673ffffffffffffffffffffffffffffffffffffffff1681526020019081526020016000206000016000828254039250508190555080600960008473ffffffffffffffffffffffffffffffffffffffff1673ffffffffffffffffffffffffffffffffffffffff16815260200190815260200160002060010160003373ffffffffffffffffffffffffffffffffffffffff1673ffffffffffffffffffffffffffffffffffffffff16815260200190815260200160002060008282540392505081905550806007600082825403925050819055505050565b60086020528060005260406000206000915090508060000154908060010154908060020154908060030154908060040154905085565b60035481565b610e77611205565b73ffffffffffffffffffffffffffffffffffffffff1660008054906101000a900473ffffffffffffffffffffffffffffffffffffffff1673ffffffffffffffffffffffffffffffffffffffff1614610f37576040517f08c379a00000000000000000000000000000000000000000000000000000000081526004018080602001828103825260208152602001807f4f776e61626c653a2063616c6c6572206973206e6f7420746865206f776e657281525060200191505060405180910390fd5b600a819080600181540180825580915050600190039060005260206000200160009091909190916101000a81548173ffffffffffffffffffffffffffffffffffffffff021916908373ffffffffffffffffffffffffffffffffffffffff16021790555050565b60075481565b600080600860008473ffffffffffffffffffffffffffffffffffffffff1673ffffffffffffffffffffffffffffffffffffffff16815260200190815260200160002090508060010154816004015402915050919050565b611002611205565b73ffffffffffffffffffffffffffffffffffffffff1660008054906101000a900473ffffffffffffffffffffffffffffffffffffffff1673ffffffffffffffffffffffffffffffffffffffff16146110c2576040517f08c379a00000000000000000000000000000000000000000000000000000000081526004018080602001828103825260208152602001807f4f776e61626c653a2063616c6c6572206973206e6f7420746865206f776e657281525060200191505060405180910390fd5b600073ffffffffffffffffffffffffffffffffffffffff168173ffffffffffffffffffffffffffffffffffffffff161415611148576040517f08c379a000000000000000000000000000000000000000000000000000000000815260040180806020018281038252602681526020018061120e6026913960400191505060405180910390fd5b8073ffffffffffffffffffffffffffffffffffffffff1660008054906101000a900473ffffffffffffffffffffffffffffffffffffffff1673ffffffffffffffffffffffffffffffffffffffff167f8be0079c531659141344cd1fd0a4f28419497f9722a3daafe3b4186f6b6457e060405160405180910390a3806000806101000a81548173ffffffffffffffffffffffffffffffffffffffff021916908373ffffffffffffffffffffffffffffffffffffffff16021790555050565b60003390509056fe4f776e61626c653a206e6577206f776e657220697320746865207a65726f2061646472657373a2646970667358221220f9f39c567d12fd47e00b8639f7828297344efe0fc92ffc752aa0afaa653e668264736f6c63430007000033",
  "immutableReferences": {},
  "source": "pragma solidity 0.7.0;\n\nimport \"@openzeppelin/contracts/math/SafeMath.sol\";\nimport \"@openzeppelin/contracts/access/Ownable.sol\";\nimport \"./ValueToken.sol\";\n\n/**\n * @title A contract for the Value Feed\n * @author Nobody (that's me!)\n * @notice The value feed is the emergent body made up of all value pools,\n * and all the assets stored in them as well as their holders themselves.\n * @dev Ownable so that later on it can be sent to a governance smart contract.\n * (This will only be done once VALUE has enough holders, so much so that an ecosystem has been created (>1000 users)\n */\ncontract ValueFeed is Ownable {\n\n    using SafeMath for uint256;\n\n    // Info of each user.\n    struct UserData {\n        uint256 inProgress; // The amount of tokens owed by the value feed to the user (rewarded every four weeks).\n        uint256 meritScore; // The score which determines the value that the user brings to the system.\n        uint256 lastReward; // The amount of points last awarded to the user.\n        uint256 streak;     // The number of consecutive successful proposals made by the user (if applicable).\n        uint256 rewardRate; // The cumulative reward rate used to calculate the amount of VALUE earned every four weeks.\n    }\n\n    // Info of each pool.\n    struct ValuePool {\n        uint256 totalValue;                     // The total monetary value (not the token) in this pool.\n        mapping (address => uint256) userValue; // Each address in this pool\n    }\n\n    // The VALUE token\n    ValueToken public value;\n    // The dev address.\n    address public dev;\n    // The maximum rate at which VALUE is minted every day.\n    // At the maximum rate, supply lasts 10 years. Note: we operate on a base of 1 = 1e18 (account for decimals)\n    uint256 public constant MAX_DISTRIBUTION_RATE = 2.46575342465753e22;\n    // The maximum rate at which VALUE is collected.\n    uint256 public constant MAX_COLLECTION_RATE = 4.93150684931506e21;\n    // The rate at which part of the rewards are taken from users in case consecutive ill behavior.\n    uint256 public rateOfCollection;\n    // VALUE tokens created per block, initially starts at the mid point of its max and min.\n    uint256 public rateOfDistribution;\n    // A numerical representation of the entire behavioral state of the Value Feed\n    uint16 public ebState;\n    // The time in seconds at which the value feed is first put up. Used in order to know when to distribute rewards.\n    uint256 public startTime;\n    // The total amount of monetary value in the entire value feed.\n    uint256 public totalValue;\n\n    // Info of each user that provides tokens to the feed.\n    mapping (address => UserData) public userData;\n    // Each value pool is mapped to its respective token address\n    mapping (address => ValuePool) public valuePools;\n    // Contains each token address for which a value pool was created\n    address[] tokens;\n\n\n    event Deposit(address indexed user, uint256 amount);\n    event Withdraw(address indexed user, uint256 amount);\n    event Swap(address[] indexed tokens, uint256 amount);\n\n    /**\n     * Constructor: initiates the value feed smart contract\n     * @param _value The value token\n     */\n    constructor(ValueToken _value) {\n        value = _value;\n        dev = msg.sender;\n        startTime = block.timestamp;\n        rateOfDistribution = MAX_DISTRIBUTION_RATE / 2;\n        ebState = 150;\n    }\n\n    /**\n    * @notice Adds a token address for which a value pool was created\n    * @param _tokenAddress The address of the value pool's token's contract\n    * @dev Owner only to prevent any DoS attacks\n    */\n    function addToken(address _tokenAddress) public onlyOwner {\n        tokens.push(_tokenAddress);\n    }\n\n    /**\n     * @notice Deposits a given amount to a value pool\n     * @param _tokenAddress The address of the value pool's token's contract\n     * @param _amount The specified amount of tokens being deposited\n     */\n    function deposit(address _tokenAddress, uint256 _amount) public payable {\n        ValuePool storage p = valuePools[_tokenAddress];\n        emit Deposit(msg.sender, _amount);\n\n        p.totalValue += _amount;\n        p.userValue[msg.sender] += _amount;\n        totalValue += _amount;\n    }\n\n    /**\n     * @notice Retrieves the quadri-weekly reward rate of a given user\n     * @dev Mainly for frontend usage\n     * @param _user ETH address of the specified user\n     * @return The cumulative reward rate of the user\n     */\n    function viewRate(address _user) external view returns (uint256) {\n        UserData storage user = userData[_user];\n        return user.rewardRate;\n    }\n\n    /**\n     * @notice Calculates the (total) reward for a given user address\n     * @param _user ETH address of the specified user\n     * @return The total reward in VALUE owed to the user\n     */\n    function calculateReward(address _user) external view returns (uint256) {\n        UserData storage user = userData[_user];\n        return (user.rewardRate * user.meritScore);\n    }\n\n    /**\n     * @notice Withdraws a given amount from a value pool\n     * @param _tokenAddress The address of the token contract who's value pool\n     * @param _amount The amount of tokens being withdrawn\n     */\n    function withdrawFromPool(address _tokenAddress, uint256 _amount) public {\n        require(valuePools[_tokenAddress].userValue[msg.sender] >= _amount, \"Insufficient funds\");\n        emit Withdraw(msg.sender, _amount);\n\n        valuePools[_tokenAddress].totalValue -= _amount;\n        valuePools[_tokenAddress].userValue[msg.sender] -= _amount;\n        totalValue -= _amount;\n    }\n\n    /**\n     * @notice Withdraws all tokens owned by a user from their respective value pools\n     * @param _user The ETH address of the specified user\n     */\n    function withdrawAllOwned(address _user) public {\n        for (uint256 i = 0; i < tokens.length; i++) {\n            if (valuePools[tokens[i]].userValue[_user] != 0) {\n                withdrawFromPool(tokens[i], valuePools[tokens[i]].userValue[_user]);\n            }\n        }\n    }\n\n    /**\n     * @notice Updates the rate of collection and distribution in an encouraging or discouraging way\n     * @dev Only called by the E.A.I\n     * @param encourage The manner by which the E.A.I wishes to influence the rates\n     */\n    function _updateRates(bool encourage) internal onlyOwner {\n        uint256 _ebState = ebState;\n        if (encourage && _ebState < 200) {\n            ebState++;\n        } else if (!encourage && _ebState > 0) {\n            ebState--;\n        }\n        if (ebState % 3 == 0) {\n            rateOfDistribution = _calculateSafeRate(!encourage, ebState, rateOfDistribution, MAX_DISTRIBUTION_RATE);\n            rateOfCollection = _calculateSafeRate(encourage, ebState, rateOfCollection, MAX_COLLECTION_RATE);\n        }\n    }\n\n    /**\n     * @notice Safely recalculates a given rate (without allowing it to go below 0 or go above the set maximum),\n     * based on the economical behavioral state of the value feed\n     * @dev Helper function (works for any rate which is equally or inversely influenced by the ebState)\n     * @param encourage The manner by which the E.A.I wishes to influence the rates\n     * @param _ebState The economical-behavioral state of the value feed\n     * @param currentRate The specified current rate\n     * @param maxRate The specified limit of the rate\n     * @return The newly recalculated rate\n     */\n    function _calculateSafeRate(bool encourage, uint16 _ebState, uint256 currentRate, uint256 maxRate) internal pure\n    returns (uint256) {\n        uint256 newRate;\n\n        if (!encourage && currentRate < maxRate) {\n            newRate = (currentRate * (1e4 + abs(150 - _ebState))) / 1e4;\n            if (newRate >= maxRate) {\n                newRate = maxRate;\n            }\n        } else if (encourage && currentRate > 0) {\n            newRate = (currentRate / (1e4 + abs(75 - _ebState))) / 1e4;\n            if (newRate <= 0) {\n                newRate = 0;\n            }\n        }\n        return newRate;\n    }\n\n    /**\n     * @notice Takes the absolute value of a given number\n     * @dev Helper function\n     * @param number The specified number\n     * @return The absolute value of the number\n     */\n    function abs(int256 number) private pure returns (uint256) {\n        return number < 0 ? uint256(number * -1) : uint256(number);\n    }\n}",
  "sourcePath": "/Users/lumonne/meritocracy/contracts/ValueFeed.sol",
  "compiler": {
    "name": "solc",
    "version": "0.7.0+commit.9e61f92b.Emscripten.clang"
  },
  "schemaVersion": "3.2.5",
  "updatedAt": "2020-10-17T21:38:09.876Z",
  "networkType": "ethereum",
  "devdoc": {
    "author": "Nobody (that's me!)",
    "details": "Ownable so that later on it can be sent to a governance smart contract. (This will only be done once VALUE has enough holders, so much so that an ecosystem has been created (>1000 users)",
    "kind": "dev",
    "methods": {
      "addToken(address)": {
        "details": "Owner only to prevent any DoS attacks",
        "params": {
          "_tokenAddress": "The address of the value pool's token's contract"
        }
      },
      "calculateReward(address)": {
        "params": {
          "_user": "ETH address of the specified user"
        },
        "returns": {
          "_0": "The total reward in VALUE owed to the user"
        }
      },
      "constructor": {
        "params": {
          "_value": "The value token"
        }
      },
      "deposit(address,uint256)": {
        "params": {
          "_amount": "The specified amount of tokens being deposited",
          "_tokenAddress": "The address of the value pool's token's contract"
        }
      },
      "owner()": {
        "details": "Returns the address of the current owner."
      },
      "renounceOwnership()": {
        "details": "Leaves the contract without owner. It will not be possible to call `onlyOwner` functions anymore. Can only be called by the current owner. NOTE: Renouncing ownership will leave the contract without an owner, thereby removing any functionality that is only available to the owner."
      },
      "transferOwnership(address)": {
        "details": "Transfers ownership of the contract to a new account (`newOwner`). Can only be called by the current owner."
      },
      "viewRate(address)": {
        "details": "Mainly for frontend usage",
        "params": {
          "_user": "ETH address of the specified user"
        },
        "returns": {
          "_0": "The cumulative reward rate of the user"
        }
      },
      "withdrawAllOwned(address)": {
        "params": {
          "_user": "The ETH address of the specified user"
        }
      },
      "withdrawFromPool(address,uint256)": {
        "params": {
          "_amount": "The amount of tokens being withdrawn",
          "_tokenAddress": "The address of the token contract who's value pool"
        }
      }
    },
    "title": "A contract for the Value Feed",
    "version": 1
  },
  "userdoc": {
    "kind": "user",
    "methods": {
      "addToken(address)": {
        "notice": "Adds a token address for which a value pool was created"
      },
      "calculateReward(address)": {
        "notice": "Calculates the (total) reward for a given user address"
      },
      "constructor": {
        "notice": "Constructor: initiates the value feed smart contract"
      },
      "deposit(address,uint256)": {
        "notice": "Deposits a given amount to a value pool"
      },
      "viewRate(address)": {
        "notice": "Retrieves the quadri-weekly reward rate of a given user"
      },
      "withdrawAllOwned(address)": {
        "notice": "Withdraws all tokens owned by a user from their respective value pools"
      },
      "withdrawFromPool(address,uint256)": {
        "notice": "Withdraws a given amount from a value pool"
      }
    },
    "notice": "The value feed is the emergent body made up of all value pools, and all the assets stored in them as well as their holders themselves.",
    "version": 1
  }
}